:020000040800F2
:10000000581400202D7200083D0200083F0200082D
:1000100043020008470200084B02000800000000ED
:100020000000000000000000000000005102000875
:100030004F020008000000005302000855020008AB
:1000400057020008590200085B0200085D02000820
:100050005F020008610200086302000865020008F0
:1000600067020008690200086B0200086D020008C0
:100070006F02000871020008730200087502000890
:1000800077020008790200087B0200087D02000860
:100090007F02000881020008830200088502000830
:1000A00087020008890200088B0200088D02000800
:1000B000A53000088F020008910200089302000892
:1000C0009502000897020008990200089B020008A8
:1000D0009D0200089F020008A1020008A302000878
:1000E000A5020008A7020008A9020008AB02000848
:1000F000AD020008AF020008B1020008B302000818
:10010000B5020008B7020008B9020008BB020008E7
:10011000BD020008BF020008C1020008C3020008B7
:10012000C5020008C7020008C9020008CB02000887
:1001300000F002F800F05CF80AA090E8000C82449D
:100140008344AAF10107DA4501D100F051F8AFF27A
:10015000090EBAE80F0013F0010F18BFFB1A43F0A5
:1001600001031847FC8600001C8700000A444FF07A
:10017000000C10F8013B13F0070408BF10F8014B06
:100180001D1108BF10F8015B641E05D010F8016B4B
:10019000641E01F8016BF9D113F0080F1EBF10F8AF
:1001A000014BAD1C0C1B09D16D1E58BF01F801CBD2
:1001B000FAD505E014F8016B01F8016B6D1EF9D555
:1001C0009142D6D37047000000230024002500266A
:1001D000103A28BF78C1FBD8520728BF30C148BFAA
:1001E0000B6070471FB508F0A0F81FBD10B510BD1B
:1001F00007F0E8F81146FFF7F5FF00F00BF807F0FD
:1002000006F903B4FFF7F2FF03BC07F011F9000091
:1002100030BF000003F0E2F8482003F041F900F09D
:1002200055F800F04EF9044800F082FE02F075FF28
:1002300002F08BFF00BFFEE734010020704700BFD3
:10024000FEE700BFFEE700BFFEE700BFFEE7704726
:1002500070477047704770477047704770477047E6
:1002600070477047704770477047704770477047D6
:1002700070477047704770477047704770477047C6
:1002800070477047704770477047704770477047B6
:1002900070477047704770477047704770477047A6
:1002A0007047704770477047704770477047704796
:1002B0007047704770477047704770477047704786
:1002C000704770477047704770477047144880699F
:1002D00040F00400124988611248006820F00F00C5
:1002E0001149C1F804080846D0F8040840F003009A
:1002F0000C4908604FF001000C490860704700206D
:100300000A4908607047012008490860704710B525
:10031000FFF7F5FF0A2003F0F4F8FFF7F4FF10BD34
:10032000001002400408014000000140A0012142E9
:100330009B480068C0B270479A480068C0B27047D6
:1003400099480068C0B2704798480068C0B27047CA
:1003500097480068C0B2704796480068C0B27047BE
:1003600095480068C0B2704794480068C0B27047B2
:1003700093480068C0B2704792480068C0B27047A6
:100380009148806940F001008F4988618F4840683A
:1003900020F07F4040F080608C4948608A48806946
:1003A00040F00C00884988618948006820F00F00FF
:1003B0008649C1F8040C0846D0F8040C40F0080047
:1003C000C1F8040C0846D0F8040C20F0F000C1F885
:1003D000040C0846D0F8040C40F08000C1F8040C6E
:1003E0000846D0F8000C20F47000C1F8000C084654
:1003F000D0F8000C40F40000C1F8000C0846D0F81A
:10040000000C20F07060C1F8000C0846D0F8000C19
:1004100040F00060C1F8000C0846D0F8000C20F055
:100420007040C1F8000C0846D0F8000C40F00040C5
:10043000C1F8000C0846D0F8040820F47000C1F898
:1004400004080846D0F8040840F40000C1F8040885
:100450000846D0F8000C20F47040C1F8000C0846A3
:10046000D0F8000C40F40040C1F8000C0846D0F869
:10047000000C20F47020C1F8000C0846D0F8000CE5
:1004800040F40020C1F8000C0846D0F8040820F021
:100490007060C1F804080846D0F8040840F0006015
:1004A000C1F804080846D0F8040820F07040C1F8EC
:1004B00004080846D0F8040840F00040C1F80408D9
:1004C000704710B5FFF75CFF10BD70B5044620689B
:1004D000804780F00100C5B26079684028402071F3
:1004E000657170BD10B5002400203A49087000BF46
:1004F00041E0394951F82400FFF7E7FF364850F84A
:1005000024000079012805D1334850F82400007AEE
:1005100030490870304850F824004079012819D13A
:100520002D4850F82400C088401C2B4951F8241055
:10053000C880294850F82400C08864280ADD0020BB
:10054000254951F82410C880234850F82400407AE7
:1005500020490870204850F82400407948B91E48C6
:1005600050F82400007920B900201B4951F82410CC
:10057000C880601CC4B2082CBBDB1648007810BDD4
:1005800010B51648FFF7A1FF1548FFF79EFF134867
:1005900041791348407901EB4000C0B210BD000022
:1005A000208121422481214214812142188121424B
:1005B0001C812142340121420C81214210812142BF
:1005C000380121423C01214200100240000001405C
:1005D000040C0140980000206000002080000020F2
:1005E0008C0000200246002107E0481C81B24FF633
:1005F000FE70814201DB00207047FD48008910F049
:10060000020FF2D0FA488281002107E0481C81B233
:100610004FF6FE70814201DB0020EDE7F4480089CF
:1006200010F0010FF2D0F2488089C0B2E4E700B5C3
:10063000F048806940F00400EE498861084680690E
:1006400040F480508861EC480068C0F31300EB4927
:10065000C1F80008E8480068E94940EA0100E749B4
:10066000C1F800080846D0F80C0840F0E000C1F8D6
:100670000C08DF480088DE4908800846008840F4FE
:10068000007008800846008840F4807008800846A2
:10069000008840F00400088008460088088008466A
:1006A000008840F0020008800846008840F0010001
:1006B00008800846008840F0180008800846008836
:1006C00008800846008840F0400008804FF0FF0096
:1006D000FFF788FF00BD00F00700C54909884FF605
:1006E000C7721140C24A11801146098841EAC0010F
:1006F00011801146098841F040011180704700B512
:1007000003461846FFF76EFF00BD00B50720FFF750
:10071000E2FF00BD00B50020FFF7DDFF00BD00B522
:100720000120B84908604FF0FF00FFF7E8FF00BD67
:1007300010B5002400BFFF20FFF7E1FFFF2801D123
:10074000002010BD641C6FF07F408442F3D3012071
:10075000F7E700B50020AB490860FFF7E9FF08B9EB
:10076000002000BDFFF7DBFF0120FAE700B5FFF72F
:100770005EFFA048806940F004009E4988619E4861
:10078000006820F470209D49C1F800080846D0F8A0
:10079000000840F44030984908604FF00100994942
:1007A000086000BD30B505464FF6FF7401E0601EDD
:1007B00084B2FF20FFF7A3FFA84201D0002CF6D19E
:1007C0000CB9FF2030BD0020FCE730B504460D46D3
:1007D000FE20FFF7E7FF08B1012030BD04E0FF2055
:1007E000FFF78DFF2070641C2800A5F101018DB278
:1007F000F5D1FF20FFF783FFFF20FFF780FF0020E8
:10080000EBE770B506460D46FFF792FF08B10120F1
:1008100070BD2846FFF773FFFD2D19D0002404E0BA
:10082000305DFFF76CFF601C84B2B4F5007FF7DB2E
:10083000FF20FFF764FFFF20FFF761FFFF20FFF7B6
:100840005EFF044604F01F00052801D00220DFE708
:100850000020DDE72DE9F04105460C4617464FF034
:100860000008FFF75CFFFFF774FF10B1FF20BDE841
:10087000F08145F04000FFF742FF200EFFF73FFFF9
:10088000C4F30740FFF73BFFC4F30720FFF737FF30
:10089000E0B2FFF734FF3846FFF731FF0C2D02D1ED
:1008A000FF20FFF72CFF4FF01F0800BFFF20FFF7CE
:1008B00026FF064616F0800F06D05FEA0800A8F172
:1008C000010101F0FF08F1D13046D0E730B505460F
:1008D000012200210A20FFF7BDFF044624B91021A0
:1008E0002846FFF772FF0446FFF719FF0CB10120FD
:1008F00030BD0020FCE730B505460122002109206B
:10090000FFF7A8FF044624B910212846FFF75DFF32
:100910000446FFF704FF0CB1012030BD0020FCE7C6
:100920007FB56846FFF7E7FF10B1002004B070BD47
:100930009DF8000000F0C000402809D19DF8090092
:100940009DF8081000EB0120401C84B2A50220E0B5
:100950009DF8050000F00F009DF80A1000EBD11083
:100960009DF8091001F0030100EB4100861C9DF881
:10097000080080119DF8071000EB81019DF806002A
:1009800000F0030001EB8020441CA6F1090004FAEA
:1009900000F52846CAE778B5FFF7E8FEFFF7B5FE91
:1009A000002504E0FF20FFF7AAFE681C85B20A2D8F
:1009B000F8DB142600BF952200210846FFF74AFF06
:1009C0000446012C04D03000A6F101018EB2F2D110
:1009D00000200D490870012C7DD187224FF4D5717C
:1009E0000820FFF737FF012854D1002515E000004B
:1009F00000300140001002400008014000000140AA
:100A00000000B0BB9001214299000020FF20FFF7B9
:100A100076FE0DF80500681C85B2042DF6DB9DF806
:100A20000200012879D19DF80300AA2875D14FF65C
:100A3000FE7600BF012200213720FFF70BFF0122C5
:100A400091072920FFF706FF044624B13000A6F1E4
:100A500001018EB2EED1F6B3012200213A20FFF758
:100A6000F9FEC0BB002506E0FF20FFF748FE0DF8A9
:100A70000500681C85B2042DF6DB9DF8000010F01F
:100A8000400F03D006206949087046E004206749FA
:100A9000087042E0012200213720FFF7DBFE01222F
:100AA00000212920FFF7D6FE0446012C19DC022084
:100AB0005E4908704FF6FE7600BF01220021372004
:100AC000FFF7C8FE012200212920FFF7C3FE0446DC
:100AD000CCB1300000E020E0A6F101018EB2ECD1F3
:100AE00011E00120514908704FF6FE7600BF012247
:100AF00000211046FFF7AEFE044624B13000A6F1F7
:100B000001018EB2F3D12EB1012251021020FFF764
:100B1000A1FE10B1002045490870FFF700FEFFF765
:100B2000F9FD4248007808B1002078BD0CB120469C
:100B3000FBE7AA20F9E7F0B506460F4615463B4805
:100B40000078062800D07F02012D0CD10122394601
:100B50001120FFF77FFE0446FCB969023046FFF71B
:100B600034FE044619E0012239461220FFF772FED6
:100B7000044600BF4FF400713046FFF726FE0446DE
:100B800006F50076681EC0B2050001D0002CF1D039
:100B9000012200210C20FFF75DFEFFF7C0FD20467B
:100BA000F0BDF0B506460F461546204800780628E9
:100BB00000D07F02012D0CD1012239461820FFF709
:100BC00049FE04466CBBFE213046FFF71AFE044680
:100BD00027E016480078012809D00122002137209B
:100BE000FFF738FE012229461720FFF733FE0122C6
:100BF00039461920FFF72EFE044694B900BFFC21A8
:100C00003046FFF7FEFD044606F50076681EC0B2CA
:100C1000050001D0002CF2D0FD210020FFF7F1FDEE
:100C20000446FFF77CFD2046F0BD0000990000203F
:100C3000B048806940F00800AE498861AE4800685D
:100C400020F47060AD49C1F8040C0846D0F8040CDB
:100C500040F44070C1F8040C0846D0F8040C20F4AD
:100C60007040C1F8040C0846D0F8040C40F4405021
:100C7000C1F8040C0846D0F8000C20F00F00C1F8B1
:100C8000000C0846D0F8000C40F00300C1F8000C3E
:100C90000846D0F8000C20F0F000C1F8000C08461F
:100CA000D0F8000C40F03000C1F8000C704708216B
:100CB0000122934B1A604FF00002924BC3F8A82117
:100CC00015E010F0800F03D001228F4B1A6002E074
:100CD00000228D4B1A6001228C4B1A604FF00002EB
:100CE000884BC3F8A8214FEA40624FEA12600A001D
:100CF000A1F10103D9B2E4D1704708210022804B51
:100D00001A60804BC3F8A82115E010F0800F03D0C3
:100D100001227D4B1A6002E000227B4B1A60012207
:100D20007A4B1A604FF00002764BC3F8A8214FEAC5
:100D300040624FEA12600A00A1F10103D9B2E4D186
:100D4000704730B504460D4605F1B001C8B2FFF753
:100D5000D4FF210941F01000FFF7CFFF04F00F008E
:100D6000FFF7CBFF30BD70B50646002415E004F157
:100D7000B001C8B2FFF7C1FF0120FFF7BEFF10208E
:100D8000FFF7BBFF002504E03046FFF790FF681C2B
:100D9000C5B2802DF8DB601CC4B2082CE7DB70BD47
:100DA00030B5002415E004F1B001C8B2FFF7A5FF8B
:100DB0000120FFF7A2FF1020FFF79FFF002504E0AE
:100DC0000020FFF774FF681CC5B2802DF8DB601CA3
:100DD000C4B2082CE7DB30BD10B5FFF729FF0120B6
:100DE0004A4908604FF000004649C1F880014FF0C1
:100DF0000A0002F086FB0120454908604FF0AE0072
:100E0000FFF77BFF0020FFF778FF1020FFF775FF4B
:100E10004020FFF772FF8120FFF76FFFCF20FFF721
:100E20006CFFA120FFF769FFC820FFF766FFA6202F
:100E3000FFF763FFA820FFF760FF3F20FFF75DFF8C
:100E4000D320FFF75AFF0020FFF757FFD520FFF709
:100E500054FF8020FFF751FFD920FFF74EFFF1200C
:100E6000FFF74BFFDA20FFF748FF1220FFF745FF9F
:100E7000DB20FFF742FF4020FFF73FFF2020FFF776
:100E80003CFF0220FFF739FF8D20FFF736FF1420CB
:100E9000FFF733FFA420FFF730FFA620FFF72DFF59
:100EA000AF20FFF72AFF0020FFF75DFF0021084673
:100EB000FFF747FF10BD70B506460024002500BFB0
:100EC00015E004F1B001C8B2FFF717FF0020FFF7EB
:100ED00014FF1020FFF711FF002505E006EBC50108
:100EE000085DFFF7E4FE6D1C802DF7DB641C082C09
:100EF000E7DB70BD00100240040C0140000001401F
:100F00008481214200802142AC812142A88121427A
:100F10008081214210B5FFF75FFF10BD10B5044678
:100F20002046FFF7C8FF10BD10B5FFF739FF10BD11
:100F300010B50446FFF7EEFF4FF480611F4806F03E
:100F4000CAF9204600F0ADFD10BD10B54FF4806128
:100F50001A4806F0C0F910BD10B51848FFF7DEFFBB
:100F6000FFF7F3FF10BDF0B50B46144600258028AF
:100F700001D2402B00D3F0BD0726A6EBD306F1B279
:100F800003F00702C2F107070126BE40F5B24CB1DB
:100F90000A4E06EBC006765C2E43084F07EBC007EF
:100FA0007E5408E0054E06EBC006765CAE43034F68
:100FB00007EBC0077E5400BFDDE700004C010020B6
:100FC00029B1012902D0FE2907D101E000BF00BFED
:100FD000FF4B0CCBC0E900237047FD4B0CCBC0E9A5
:100FE000002300BFF8E72DE9FE4F0446884615466A
:100FF0001E460120029004F0FF0B31466846FFF7C1
:10100000DFFF9DF8000030400290A5F12000C5B23E
:101010009DF80200401E47B233E09DF8021001988F
:1010200005FB010010F807904FF0000A23E019F0CB
:10103000800F05D041462046029AFFF794FF09E051
:10104000029808B9012000E00020C2B241462046C3
:10105000FFF789FF4FEA49604FEA1069641CA4EB6F
:101060000B00082803D15C4608F1010806E00AF1EC
:10107000010000F0FF0ABAF1080FD8DB00BF781EAC
:1010800047B2002FC9DABDE8FE8F2DE9FC410646C4
:10109000884614461F46002539466846FFF790FFEC
:1010A0000AE0625D3B4641463046FFF79CFF9DF8F3
:1010B00001000644681CC5B2605D0028F1D1BDE89E
:1010C000FC812DE9FF4F9FB01D461F9800F0FF08DF
:1010D00000201C9003201B9001200C90219908A84F
:1010E000FFF76EFF0020129010904BE215F8011BE5
:1010F0004CB204B94AE2252C0BD0E2B24046DDE9FD
:101100002013FFF770FF9DF82100404400F0FF0816
:1011100033E200208146834600BF199015F8011B79
:101120004CB2302C05D14FF0010915F8011B4CB21F
:101130000EE02D2C05D14FF0020915F8011B4CB221
:1011400006E02E2C04D101201C9015F8011B4CB296
:1011500018E01C9801280BD1199800EB800004EBD3
:1011600040003038C0B2199015F8011B4CB209E0AC
:101170000BEB8B0004EB4000303800F0FF0B15F850
:10118000011B4CB2302C01DB392CE2DD1C9801280C
:1011900007D11998072801DD072000E01998C0B28F
:1011A0001B906C2C01D04C2C04D149F0040915F88B
:1011B000011B4CB204B9E9E12746612C04DB7A2C0F
:1011C00002DCA7F1200047B24F2F78D008DC422F75
:1011D00076D0432F64D0442F73D0462F72D173E062
:1011E000532F04D0552F6ED0582F6BD122E12C985D
:1011F000006813902C98001D2C904FF0000A03E01B
:101200000AF1010000F0FF0A139810F80A00002804
:10121000F6D1CDF83CA0119019F0020F15D10EE0D7
:1012200020224046DDE92013FFF7DDFE1198401C27
:1012300000B211909DF82100404400F0FF08504694
:10124000411C01F0FF0A5845EADB4046DDE9201366
:10125000139AFFF71AFF9DF821100F9801FB0080E9
:1012600000F0FF080F991198084400B211900EE0A9
:1012700020224046DDE92013FFF7B5FE1198401CFF
:1012800000B211909DF82100404400F0FF08504644
:10129000411C01F0FF0A5845EADB119810906CE1FF
:1012A0002C9802C8CAB22C904046DDE92013FFF703
:1012B0009AFE9DF82100404400F0FF085DE1B2E095
:1012C000AEE0B3E0B9E0B2E02C98C01D20F007001A
:1012D00001462C90006849682C9A08322C92CDE97E
:1012E0000A0100221346DDE90A0106F06DFB0BD26C
:1012F0001B9840F008001B900022364BDDE90A01E4
:1013000006F09EFBCDE90A01DDE90A0106F0D4FAF8
:1013100000B20E901B9800F007001A9009E00C989C
:1013200000EB8000400000B20C901A98401EC0B242
:101330001A901A98401EF2D50E9806F01AFBCDE9C5
:101340000001DDE90A2306F0AFFCCDE904010C98A9
:1013500006F00FFBCDE90201DDE9042306F070FB86
:10136000CDE9060106F0A8FA00B20D9000261B9800
:1013700000F007001A901CE00D98A0B10A210D980A
:1013800090FBF1F201FB120047B20D9890FBF1F0D7
:1013900000B20D9007F1300042B23046711CCEB25F
:1013A00014A90A5405E030223046711CCEB214A9AB
:1013B0000A541A98411EC9B21A910028DCD12E2273
:1013C0003046711CCEB214A90A5400BF0A2103E0B2
:1013D0009C0000200000F0BF0E9890FBF1F201FB92
:1013E000120047B20E9890FBF1F000B20E9007F198
:1013F000300042B23046711CCEB214A90A540E9885
:1014000008B1102EE2D31B9810F0080F05D02D2242
:101410003046711CCEB214A90A5400201C906AE018
:1014200002201D9017E008201D9014E000BF0A2044
:101430001D9010E010201D900DE0E2B24046DDE965
:101440002013FFF7D0FD9DF82100404400F0FF0875
:101450000120109091E000BF19F0040F05D02C98E6
:1014600000682C99091D2C910CE0442F05D12C9873
:1014700000682C99091D2C9104E02C9800682C9987
:10148000091D2C911890442F08D1189810F0004F86
:1014900004D018984042189049F00809002600BF6F
:1014A0001D991898B0FBF1F201FB120047B21D998B
:1014B0001898B0FBF1F01890092F06DD782C01D1B7
:1014C000272000E00720384447B207F1300042B23D
:1014D0003046711CCEB214A90A54189808B1102EC7
:1014E000DED319F0080F05D02D223046711CCEB284
:1014F00014A90A5400BFB24619F0010F01D03020E0
:1015000000E0202047B20AE0FAB24046DDE92013AD
:10151000FFF769FD9DF82100404400F0FF0819F035
:10152000020F05D15046411C01F0FF0A5845EBDB84
:1015300000BF701EC0B2064614A90A5C4046DDE931
:101540002013FFF750FD9DF82100404400F0FF08F4
:10155000002EEED10AE0FAB24046DDE92013FFF793
:1015600042FD9DF82100404400F0FF085046411C18
:1015700001F0FF0A5845EEDB00BF109912980844AD
:1015800000B212901098401C7FF4B0AD00BF23B0A1
:10159000BDE8F08F0FB47CB504460D4616460AA888
:1015A000019001980090324629462046099BFFF79A
:1015B00088FD7CBC5DF814FB2DE9F04106460F4622
:1015C00015461C4615F0030006D001282AD0022833
:1015D00008D0032825D114E0002239463046FFF711
:1015E000C2FC25E014F0010F05D001223946304637
:1015F000FFF7B9FC04E0002239463046FFF7B3FCA0
:1016000016E004F00300022805D3012239463046D3
:10161000FFF7A9FC04E0002239463046FFF7A3FC9F
:1016200006E000BF012239463046FFF79CFC00BFB0
:1016300000BFBDE8F0812DE9FF4F81B081460398DE
:10164000A0EB090004B202990498401A05B2002CDC
:1016500001DD012000E000200121C1EB40000FFA74
:1016600080FA002D01DD012000E000200121C1EB06
:1016700040000FFA80FB0FFA89F702980FFA80F802
:10168000002000900026002C01DA604200E0204695
:1016900004B2002D01DA684200E0284605B2AC42EF
:1016A0001EDD0FFA89F716E00098401C00904146B5
:1016B0003846009B0E9AFFF77FFF701906B2B4EB15
:1016C000460F05DC08EB0B000FFA80F8301B06B262
:1016D00007EB0A0007B203985044B842E4D11EE079
:1016E00002980FFA80F816E00098401C00904146DE
:1016F0003846009B0E9AFFF75FFF301906B2B5EB34
:10170000460F04DC07EB0A0007B2701B06B208EBB9
:101710000B000FFA80F8049858444045E4D105B016
:10172000BDE8F08F2DE9F84F04460D4690464FF086
:10173000000B002D01DCBDE8F88F012D08D154F815
:10174000049BD4F800A0012251464846FFF70BFC49
:1017500054F8049B54F804AB4FF0010B0FE040CC5D
:1017600080CC3B46324651464846CDF80080FFF7D4
:1017700062FFB146BA460BF1010000F0FF0BAB452A
:10178000EDDB00BFD7E72DE9F84F06460C461746BC
:101790001D46DDF828804FF00009CA4618F0040FF6
:1017A00002D1B8F1000F35D1BE4202D9B1463E4652
:1017B0004F46AC4202D9A1462C464D46B8F1000F27
:1017C00002D14FF0000A01E04FF0010AAC4209D10A
:1017D00023463A4621463046CDF800A0FFF72BFFBE
:1017E000BDE8F88FBE4208D12B463246214630462E
:1017F000CDF800A0FFF71FFFF2E708E023463A46C6
:1018000021463046CDF800A0FFF715FF641CAC421E
:10181000F4D91FE02B46324621463046CDF80080F1
:10182000FFF709FF2B463A4629463046CDF800809F
:10183000FFF701FF2B463A4621463846CDF8008097
:10184000FFF7F9FE23463A4621463046CDF80080A0
:10185000FFF7F1FE00BFC3E72DE9F84F06460F463C
:101860009046994600241FFA88F50320A0EB480013
:101870000FFA80FA65E0B9F1040F20D1012300933B
:101880007B19321B79193019FFF7D5FE012300931C
:101890007B1B321B791B3019FFF7CDFE0123009310
:1018A0003B19721B39197019FFF7C5FE012300930C
:1018B0003B1B721B391B7019FFF7BDFE27E079191E
:1018C00030194A46FFF74FFB7919301B4A46FFF79C
:1018D0004AFB791B30194A46FFF745FB791B301B41
:1018E0004A46FFF740FB391970194A46FFF73BFBA0
:1018F0003919701B4A46FFF736FB391B70194A46E7
:10190000FFF731FB391B701B4A46FFF72CFB601CAD
:1019100084B2BAF1000F0EDB681E85B2A0000FFA88
:1019200080FBABEB85000FFA80FB0BF10A00504403
:101930000FFA80FA05E0062000EB840050440FFA0D
:1019400080FAA54297DCBDE8F88FF0B50446059D06
:10195000C80800FB0320005D01F00706C6F1070779
:101960000126BE40304201D0012000E00020C0B27C
:10197000F0BD2DE9F84F07460E4693469946DDE93E
:101980000A8A00240025464400BF21E000241BE011
:101990004B465A4621462846CDF80080FFF7D5FF32
:1019A00028B1311B78195246FFF7DDFA0AE0BAF187
:1019B000000F01D1012300E00023DAB2311B7819B6
:1019C000FFF7D1FA601C04B24445E1D3681C05B2AC
:1019D0004D45DBD3BDE8F88F4C4800210160017113
:1019E00000204A4948718871704748498979474AB7
:1019F000505411468979491CC9B29171052901DBFE
:101A000000219171704741484079404A9279904253
:101A100001D1002070473D4840793C4A115C104696
:101A20004079401CC0B25071052801DB0020507184
:101A30000846EFE7F8B5044600BF00BF206805F090
:101A40002BFC001D00EB40004006060EC6F1800096
:101A5000C0F34705236800932DA301223821A81C59
:101A6000FFF798FD012300933923AA1C194606208D
:101A7000FFF7E1FD0123A919881E0093392379227C
:101A80001946FFF7D8FD606850B12348007838B98F
:101A90008523009321A3012238210020FFF77AFD3E
:101AA000F8BD00B502461E480260FFF795FF00BD75
:101AB00000B503461846FFF798FF00BD19480078A7
:101AC000704710B5FFF79FFF16490870144800686B
:101AD000FFF7B0FF1249096888688047114800780D
:101AE000602812D10C48007878B90D480068406829
:101AF00058B10B48006840680949086000200A494D
:101B00000968087008490968487010BDAC000020D9
:101B10005B202573205D0000A500002025630000E8
:101B2000A8000020A4000020200100200146FA485F
:101B300000684078081A0AD4F74800684078081A04
:101B4000F54A1268D278904201DC012070470020EB
:101B5000FCE70146F04800688078401AEE4A1268B7
:101B600052781044C00070472DE9F04F8BB0064604
:101B7000884617464FF0000900200A9082460990D7
:101B8000834600BF0890464503DA0A964646DDF8CC
:101B90002880102F00DD1027DF4800688670A6EB34
:101BA0000800DD490968C870DB480068C078B842A1
:101BB00003DB781ED8490968C870FFF77FFF8246AB
:101BC000BAF1500F1FD1D4480068007800280ADD10
:101BD000D248007838B9D04800680078401ECE4915
:101BE0000968087039E0CC4800684078002834DD86
:101BF000CA48007888BBC84800684078401EC6497B
:101C00000968487029E0BAF1200F26D1C24800685F
:101C10000078C1490968C97888420ADABF48007863
:101C200038B9BD4800680078401CBB490968087095
:101C300013E0B94800684178B7480068C078381A9E
:101C4000401E814209DAB548007830B9B2480068D0
:101C50004078401CB04909684870AF480068407837
:101C6000AD4909680978084400F0FF0BF000AA4963
:101C7000096848604FEAC800A74909688860A64813
:101C800000684168A44800680078A1EBC000C0B2B9
:101C9000099086230093A2A3012200200999FFF74F
:101CA00079FC062E0FD002239B4800930068406801
:101CB00000F1080398480068406800F108017F229D
:101CC0000020FFF7B8FC6EB1022393480093006830
:101CD0008068431E904800688068411E7F22002073
:101CE000FFF7A9FC384605F05BFECDE906018A49FD
:101CF00009684968884A12689268891A01F10800DF
:101D000005F04EFECDE90401DDE9062305F07CFC7B
:101D100004460D460BF1010005F02BFE22462B4632
:101D2000CDE9000105F08CFECDE904017A4909688E
:101D30004968C81D05F034FECDE90201DDE9042340
:101D400005F0BEFFCDE9060105F0E6FD0890089814
:101D500005F026FE22462B46CDE9020105F0A2FB46
:101D6000CDE9040105F0D8FD042300930790034654
:101D70007F227C200899FFF706FD01236648009327
:101D800000684068C31D644800687F2281687C2029
:101D9000FFF7F9FC4FF000090BE0CB4501D1012022
:101DA00000E000205F4901F8090009F1010000F09E
:101DB000FF09B945F1DD0BB0BDE8F08FF8B5044679
:101DC0000D46002600275548007810F0020F00D07D
:101DD000F8BD102C00DBFBE72046FFF7A7FE01282B
:101DE00036D12046FFF7B5FE06464E48005D012875
:101DF0000DD1FFF763FE0746402F08D14A48056022
:101E000000204549096808704349096848702B68F3
:101E1000009346A3012231460620FFF7BBFB872330
:101E200000933FA3012231467320FFF7B3FB3A48EA
:101E3000006840783849096809780844A04207D109
:101E40008423009336A3012238217A20FFF7A2FBD6
:101E500000BFBDE72DE9F04106460027002E01DB5B
:101E6000304600E070424FFA80F80024304D0027E1
:101E700014E0002E08DB00222E4B2046294605F0F8
:101E8000DFFD04460D4607E02B4A2C4B2046294631
:101E900005F0D6FD04460D46781C07B24745E8DB41
:101EA00020462946BDE8F0812DE9FF4F8FB09246CC
:101EB0001CAE96E8C00300200B900A9000210C464F
:101EC0000D460990089083460790069005901348A8
:101ED000007810F0020F02D013B0BDE8F08F424638
:101EE0004B463046394605F06FFD05D2CDE90C670B
:101EF00046464F46DDE90C890F98102800DBEBE7DA
:101F0000BAF1060F28D2DFE80AF0031B281E2124AD
:101F10002098099024E0000020010020A500002066
:101F20002563000081050020A80000202573000023
:101F30000000F03F000024409A9999999999B93F7F
:101F4000209808900CE02098079009E020980690CF
:101F500006E02098059003E000BFDDF880B000BFE8
:101F600000BF0F98FFF7E2FD01287ED10F98FFF721
:101F7000F0FD0B90F9490F98085C012876D1FFF726
:101F80009DFD0A900A98402805D1F548007880F018
:101F90000100F3490870F248007810F0010F65D095
:101FA000F04890F90000FFF755FF04460D460A98E7
:101FB00050287CD1BAF1060F7AD2DFE80AF003206C
:101FC000953C5A7A099991F9000005F0D2FC224615
:101FD0002B46CDE9000105F065FA32463B46CDE9D6
:101FE000020105F0F1FC09D82046294605F064FC01
:101FF00009990978084441B20998017090E008995C
:10200000087805F0CDFC22462B46CDE9000105F00D
:1020100049FA32463B46CDE9020105F0D5FC09D824
:102020002046294605F078FC089909780844C1B291
:102030000898017074E00799086805F09AFC224638
:102040002B46CDE9000105F02DFA32463B46CDE99D
:10205000020105F0B9FC0BD82046294605F02CFCFE
:10206000079909680144079801E0CCE11EE101608D
:1020700056E00699086805F00DFF22462B46CDE98B
:10208000000105F00FFA32463B46CDE9020105F0AA
:102090009BFC0BD82046294605F0D2F904900698FF
:1020A0000168049805F022FF0699086038E038E0DE
:1020B00019E0059903C922462B46CDE9000105F038
:1020C000F1F932463B46CDE9020105F07DFC09D825
:1020D000059903C922462B46CDE9020105F0E2F934
:1020E000059A03C21CE000BFBBF9000005F041FCEB
:1020F00022462B46CDE9000105F0D4F932463B4695
:10210000CDE9020105F060FC09D82046294605F01A
:10211000D3FBBBF80010084400B2ABF8000000BFCE
:10212000E6E00A98202879D1BAF1060F77D2DFE8E5
:102130000AF00320923C5777099991F9000005F0C5
:1021400018FC22462B46CDE9000105F0B9FD4246B8
:102150004B46CDE9020105F071FD09D8204629461C
:1021600005F0AAFB09990978081A41B2099801708B
:102170008DE00899087805F013FC22462B46CDE93E
:10218000000105F09DFD42464B46CDE9020105F0F8
:1021900055FD09D82046294605F0BEFB0899097867
:1021A000081AC1B20898017071E00799086805F033
:1021B000E0FB22462B46CDE9000105F081FD4246B9
:1021C0004B46CDE9020105F039FD08D820462946E5
:1021D00005F072FB07990968091A0798016056E033
:1021E0000699086805F056FE22462B46CDE9000107
:1021F00005F066FD42464B46CDE9020105F01EFDA5
:102200000BD82046294605F01BF904900698016872
:10221000049806F096F80699086038E038E019E06E
:10222000059803C822462B46CDE9000105F048FD7C
:1022300042464B46CDE9020105F000FD09D805985C
:1022400003C822462B46CDE9020105F039FD059A67
:1022500003C21CE000BFBBF9000005F08AFB224668
:102260002B46CDE9000105F02BFD42464B46CDE95A
:10227000020105F0E3FC09D82046294605F01CFBC5
:10228000BBF80010081A00B2ABF8000000BF2FE046
:102290000A9830280BD1334890F90000042827DA37
:1022A00030480078401C40B22E49087020E00A985F
:1022B00010281DD1BAF1040F02D0BAF1050F0CD1CC
:1022C000284890F9000010F1030F11DD254800782F
:1022D000401E40B2234908700AE0224890F90000ED
:1022E000002805DD1F480078401E40B21D490870D7
:1022F000BAF1060F48D2DFE80AF0030E4818223B75
:10230000099890F90030009317A3012244200B99FB
:10231000FFF740F944E008980378009312A30122E4
:1023200044200B99FFF736F93AE0079803680093C9
:102330000DA3012244200B99FFF72CF930E00699F8
:10234000086805F0A7FDCDE9020108A30122CDE947
:10235000000144200B99FFF71DF921E081050020C1
:10236000A50000202401002025640000256600004F
:10237000059903C9AFF20C030122CDE90001442005
:102380000B99FFF707F90BE000BFBBF90030009392
:10239000AFF22C03012244200B99FFF7FBF800BF9A
:1023A00000BFFB48007810F0010F11D0F9490F98D9
:1023B000085C01280CD18323CDE9024504938223D4
:1023C0000093F5A3FE2200200B99FFF7E3F808E045
:1023D000109B0093AFF2AC43012206200B99FFF74C
:1023E000D9F8EF4800684078ED4909680978014458
:1023F0000F98814207D184230093E8A3012238215A
:102400007A20FFF7C7F800BF66E50FB47CB5044635
:102410000025102C02DB7CBC5DF814FB2046FFF786
:1024200085FB01280ED12046FFF793FB054608A83F
:10243000019001980090012229460620079BFEF793
:1024400040FE00BF00BFE6E72DE9F84304460D4615
:1024500016460027B846B946CD48007810F0020F5E
:1024600001D0BDE8F883102C00DBFAE72046FFF727
:102470005DFB012834D12046FFF76BFB0746C548BA
:10248000005D012807D1FFF719FB8046B8F1400F26
:1024900001D14FF00109AFF26C53012239460620F9
:1024A0000095FFF777F8BFA3012239464420FFF7D4
:1024B00071F8B9F1010F02D14FF00009B047B848E7
:1024C00000684078B649096809780844A04207D1F5
:1024D00084230093B1A3012238217A20FFF75AF810
:1024E00000BFBEE72DE9F84F04460F4615461E46CD
:1024F0004FF00009CA46012000FA06F8A448007807
:1025000010F0020F01D0BDE8F88F012E01DB202E64
:1025100000DD0126102C00DBF5E72046FFF706FB67
:1025200001283BD12046FFF714FB81469948005D06
:10253000012809D1FFF7C2FA8246BAF1400F03D150
:10254000286880EA08002860AFF22063012249462B
:1025500006200097FFF71EF8286810EA080F06D03B
:1025600091A3012249464420FFF714F805E090A307
:10257000012249464420FFF70DF889480068407859
:102580008749096809780844A04207D18423009349
:1025900082A3012238217A20FEF7FCFF00BFB2E7B8
:1025A00070B504460E461546284604F075FEA04256
:1025B00005D922462946304604F0D6FE03E02946D6
:1025C000304604F045FE70BD2DE9FF4F85B08146D1
:1025D00092469B46002004900027002400250026F8
:1025E000BAF1290F02DA0AF1010000E029201FFAEE
:1025F00080F8B9F1100F02DB09B0BDE8F08F484652
:10260000FFF794FA012878D14846FFF7A2FA049020
:10261000604810F8090001286ED1FFF74FFA07460D
:10262000402F2CD16448008818BB6448008800BB48
:102630005748007810F0020F0BD05548007820F072
:102640000200534908705E4A59465046FFF7A8FFFA
:1026500015E04F48007840F002004D4908702921EC
:10266000574804F05AFE5A4655494046FFF798FF2E
:1026700005E04748007880F0040045490870444868
:10268000007810F0020F37D04B4800884B4909887A
:10269000132202FB010086B2502F3ED13C48007845
:1026A00010F0040F2AD047480068017845480068B8
:1026B000001D50F821000178424800680278414826
:1026C0000068001D50F82200007A401E814215DA91
:1026D0003C48006801783B480068001D50F8210024
:1026E0000078401CC1B2374800680278354800685D
:1026F000001D50F822000170B2E0EDE1244800789E
:1027000010F0040F08D12D480088002804DD2B4864
:102710000088401E29490880A2E0202F54D11C487F
:10272000007810F0040F1FD0264800680178254873
:102730000068001D50F821000078002814DD2148B1
:10274000006801781F480068001D50F821000078DB
:10275000401EC1B21B48006802781A480068001D7C
:1027600050F8220001707BE00948007810F0040F57
:1027700076D112480088042872DA06F11300404529
:102780006EDA0E480088401C0C49088068E00000A2
:10279000A500002081050020256325662563000033
:1027A000200100202D3E00005B4F4E205D00000008
:1027B0005B4F46465D0000002601002028010020F6
:1027C000580500201C010020302F20D1FF48007840
:1027D00010F0040F0CD0FE4800680078002807DDD8
:1027E000FB4800680078401EF9490968087037E026
:1027F000F648007810F0040F32D1F648008800281F
:102800002EDDF4480088401EF249088028E0102F91
:1028100026D1EE48007810F0040F10D0EC48006884
:102820000178EB4800684078401E814207DAE848AA
:1028300000680078401CE6490968087010E0E34829
:10284000007810F0040F0BD1E2480088122807DA54
:10285000701C404504DADF480088401CDD490880D0
:10286000DA48007810F0020F75D0FEF76EFB0123F6
:1028700000933F237F2200210846FEF784FF0123B7
:10288000009309237F2219460020FEF7D4FECF488B
:10289000007810F0040F41D0CD4800680178CC4892
:1028A0000068001D50F82100C168C948006802781E
:1028B000C7480068001D50F822000078095C701EAF
:1028C000C54A1154C24800680178C1480068001D1B
:1028D00050F8210043680093AFF6B013012211466F
:1028E0000220FEF757FEBA4800680178B848006831
:1028F000001D50F82100C168B54800680278B4484E
:102900000068001D50F8220000780B5C0093B3A310
:10291000012211464020FEF73DFE1AE0B148008832
:1029200048B9AC48008830B9AFA301221146022053
:10293000FEF730FE0DE0A74803885B1CA94802881B
:10294000521CCDE90023AAA3012211460220FEF762
:1029500021FE00247DE07FE0002576E0D4B9CDB9EA
:102960009C48008860B99F48008848B98523009337
:10297000AFF2D813FE2230210620FEF70BFE62E0F4
:1029800085230093AFF2EC13012230210620FEF7DD
:1029900001FE58E0132000FB0450401E86B246455D
:1029A0004FDA8C480088A84227D18E480088A04280
:1029B00023D18948805D78B989233022A2EBC401F4
:1029C00005EB45020093062303EB4200AFF23423EC
:1029D000FE22FEF7DFFD36E07F48835D3022A2EB6A
:1029E000C40105EB45020093062303EB4200AFF25E
:1029F0005423FE22FEF7CEFD25E07748805D78B9AE
:102A000089233022A2EBC40105EB45020093062383
:102A100003EB4200AFF27C230122FEF7BBFD12E084
:102A20006D48835D3022A2EBC40105EB45020093A3
:102A3000062303EB4200AFF29C230122FEF7AAFD1E
:102A400001E008241525681C85B2132D86DB601C67
:102A500084B2052C80DB2DE0069B0093AFF6343367
:102A6000012206200499FEF795FD5A4602A9072087
:102A7000FFF796FD02AB0093AFF6503301224420DE
:102A80000499FEF787FD584604F006FC072808D98C
:102A900089230093AFF2FC2301226D200499FEF7F5
:102AA00079FD88230093AFF20C330122732004993F
:102AB000FEF770FD51480068407850490968097870
:102AC0000844484508D184230093AFF230330122F3
:102AD00038217A20FEF75EFD00BF8DE50FB47CB58E
:102AE00004460D4616463948007810F0020F02D011
:102AF0007CBC5DF814FB0AA8019001980090324656
:102B000029462046099BFEF7DCFA00BFF0E72DE9D5
:102B1000FF4F87B007460E4691469846DDF85CB0F9
:102B2000DDF854A00020059000BF049027480078ED
:102B300010F0020F02D00BB0BDE8F08F1498504592
:102B400005DA14980590CDF850A0DDF814A014997A
:102B50001698884201DA169800E014981690169894
:102B6000504501DD169800E0504616901499A1EBEF
:102B70000A0004F0FEFECDE902011699A1EB0A005D
:102B800004F0F7FECDE90001DDE9022304F03CFD8D
:102B900004460D461BF0010F64D1484604F000FFC7
:102BA00022462B46CDE9000104F04AFFCDE902019F
:102BB00004F0B2FE04901BF0060F2FD10123009306
:102BC00006EB080307EB0902314619E0A5000020D7
:102BD0001C01002026010020580500205B202563F1
:102BE000205D0000280100204241434B000000000E
:102BF0004C3A256420433A2564000000200100205F
:102C00003846FEF7C0FD0423009306EB0803049842
:102C10003A1831463846FEF7B6FD6AE00BF006007A
:102C2000022866D10123009306EB080307EB090293
:102C300031463846FEF7A7FD0123009306EB080353
:102C400004983A1831463846FEF79DFD002300935C
:102C500006EB080307EB090206EB08013846FEF70E
:102C6000EAFC46E0404604F09BFE22462B46CDE9B6
:102C7000000104F0E5FECDE9020104F04DFE0490F0
:102C80001BF0060F14D10123009306EB080307EB9A
:102C9000090231463846FEF776FD04230093049876
:102CA000331807EB090231463846FEF76CFD20E089
:102CB0000BF0060002281CD10123009306EB080349
:102CC00007EB090231463846FEF75DFD012300930C
:102CD0000498331807EB090231463846FEF753FDD6
:102CE0000023009306EB08033A4631463846FEF7C8
:102CF000A2FC00BF1FE72DE9FF4F91B080460F46B1
:102D00009146DDE91EA600200F900E9000BF00BF87
:102D100000210A910B91CDF82480089707908346F3
:102D200006900590B448007810F0020F02D015B05C
:102D3000BDE8F08FB24503DACDF83CA0B2460F9E55
:102D4000484604F02DFECDE90201209804F028FE4B
:102D5000CDE90001DDE9022304F056FCCDE90C01C8
:102D6000AAEB060004F005FECDE90201149804F078
:102D700017FECDE90001DDE9022304F045FC04461D
:102D80000D4600200E903CE00AA80FC804F08AFB14
:102D9000CDE90A01DDE90A0104F08EFD219951F81F
:102DA00020B00E9840440690B34512DBD34510DAAC
:102DB000ABEB060004F0DDFD22462B46CDE9000119
:102DC00004F03EFECDE9020104F0A6FD3844059072
:102DD00007E0B34501DA059703E014983844401E34
:102DE000059001230093DDE90532DDE90810FEF7C7
:102DF00022FC06980990059808900E98401C80B215
:102E00000E900E984845BFD3012300931498384480
:102E1000431E08EB0900421E39464046FEF7B3FC4C
:102E2000002E14DA704204F0A4FD22462B46CDE9B0
:102E3000000104F005FECDE9020104F06DFD384407
:102E40000790012208F101000799FEF78CF800BFF6
:102E50006DE72DE9FF4705460E4617469846DDE922
:102E60000C9A0E9C6448007810F0020F01D0BDE867
:102E7000FF8722886368CDE9009ACDE902234346A3
:102E80003A4631462846FFF736FF00BFEFE730B538
:102E90000A460023012100BF00BF09E0446854F83E
:102EA0002140456845F823405C1CA3B24C1CA1B2EC
:102EB00004888C42F2DC0488641E456845F82420AE
:102EC00030BD2DE9FF4F89B080468A4615461C4625
:102ED000DDE917B9002008900790069005900026BC
:102EE00000270AEB04000490002003904248007879
:102EF00010F0020F02D00DB0BDE8F08F012119983B
:102F000021EAD01003905D450BD34C4509D3039BB8
:102F1000CDE900935B4651464046169AFEF729FDDF
:102F200058E0284605F026F90290584605F022F9A7
:102F30000190029905F03CF80890204605F01AF936
:102F40000290484605F016F90190029905F030F814
:102F5000079000273CE0384605F00CF901900899ED
:102F600005F01CF9029005F0E5F880B20690002605
:102F70002AE0304605F0FEF80190079905F00EF9B9
:102F8000029005F0D7F880B205905B46CDF800902E
:102F9000169ADDE90510FEF7D8FC38B1049A911BAA
:102FA00008EB0700039AFDF7DEFF0BE0039B0BB96C
:102FB000012300E00023DAB2049B991B08EB070011
:102FC000FDF7D1FF701C86B2A642D2D3781C87B21F
:102FD000AF42C0D3199810F0400F0BD001230AEB79
:102FE00004000093431E08EB0500421E5146404674
:102FF000FEF7C9FB00BF7EE7A50000201FB5C02378
:1030000038224A2163488DE80F0013460A46002102
:103010000846FFF756FF01235F480288002141F66A
:103020005A108DE80F00372304224A20FFF76FFD66
:1030300059480388009359A3012200214F20FFF72C
:103040004DFD1FBD7FB505460C460121084603F026
:103050009FFA681E80B2ADF80800601E80B2ADF81D
:1030600004000020ADF80A00ADF8060001A94FF0F9
:10307000804003F056FB01221146900703F0D1FD7A
:103080004FF4A06002F031FF1C208DF800000120F9
:103090008DF801008DF802008DF80300684602F0FB
:1030A00029FF7FBD10B50121880704F06DF898B3A2
:1030B0003B480078012823D13748008840F2062297
:1030C00000FB02F1374801F05BFD374B40F206226E
:1030D0003049344801F0EFFAFEF7F3FCFDF73CFF0E
:1030E0002D48008841F65A11884205DA2A4800889E
:1030F000401C294908800BE000202949087007E09E
:1031000000214FF0804003F071FD264801F02DFDB5
:103110000121880704F049F810BD10B507E023A38A
:10312000012200210846FEF735FAFDF715FFFDF7ED
:1031300032FC0028F3D1204901F0FEF94FF461611F
:1031400040F29B20FFF77EFF10BD10B5012014490F
:103150000870012219A1134801F001FA0121880722
:1031600003F044FD10BD10B50446012213A10D4823
:1031700001F0F5F940F2062004FB00F1094801F0E6
:10318000FFFC094B40F206220249064801F093FA7F
:1031900010BD0000EC0900202E0100202564000075
:1031A0002C010020C4070020300100204E6F205366
:1031B00044636172642100009405002062616461CF
:1031C00070706C652E62696E00000000A24A0A40B1
:1031D0000243A24B1A6070470146072323EA01020B
:1031E00012029F4B18684FF6FF0300EA03009D4B45
:1031F00040EA030040EA02004FF0E023C3F80C0D60
:10320000704700B5002098490861C86014204861E3
:1032100000208861C8610846006840F0010008602D
:1032200008464068914908408F4948600846006850
:103230008F4908408C4908600846006820F48020C7
:1032400008600846406820F4FE004860002088605E
:1032500000214FF00060FFF7B9FF00BD10B58548B1
:10326000006840F004004FF0E021C1F8100D7E48E6
:10327000C06940F080507C49C8610846C06940F090
:103280000060C8617C48406840F480707A494860BA
:103290000846006840F0040008600846006840F0F6
:1032A00002000860FCF7B4FF10BD6E48001D6C49B9
:1032B000086070472DE9F0478046894614461D4650
:1032C0002046E11704EB91714FEAA10AE11704EBE4
:1032D00091718910A4EB8101CFB2042000EBC700EB
:1032E000C7B22846FFF778FFC5F1040008FA00F6D8
:1032F0000F20284100EA0900064306F00F06202CA3
:103300000CDA5E4800684FF0010101FA04F140EA6E
:1033100001004FF0E021C1F800010DE058480068BD
:10332000A4F120014FF0010202FA01F240EA02008A
:103330004FF0E021C1F80401524850F82A0006FA83
:1033400007F108434F4941F82A00BDE8F08770B5FE
:1033500003460846CE1701EB9676B410CE1701EB64
:103360009676B610A1EB8606B606350E3E48806905
:1033700040F001003C4EB0614FEAB63050F82400F6
:1033800003FA05F60643404840F824603F480068C9
:103390004FF0010606FA01F640EA06003C4EC6F878
:1033A000000412F0010F0AD03A4800684FF00106FD
:1033B00006FA01F640EA0600354EC6F80C0412F093
:1033C000020F0AD0344800684FF0010606FA01F6F1
:1033D00040EA06002E4EC6F8080470BD10B5002461
:1033E000FFF70FFF2048006840F480301E49086056
:1033F00000BF1D480068400CFBD04FF480601A49A4
:1034000048600846406840F4E0104860084640685C
:1034100040F4803048602148006840F032001F4985
:1034200008601148006840F080700F49086000BFD4
:103430000D480068400EFBD00B48406840F0020089
:103440000949486005E008484068C0F3870404F073
:103450000304022CF7D110BD80FFFF1F08ED00E030
:103460000CED00E00000FA05001002400000FFF83B
:10347000FFFFF6FE10ED00E00070004000E100E00C
:1034800004E100E000E400E0080001400004014025
:10349000000001400C0401400804014000200240EB
:1034A0004FF0E021096921F004014FF0E0221161A1
:1034B000C21700EB5272D2101F4B1A7019460978CE
:1034C0004FF47A7251431D4A1180704701461A4ADF
:1034D00012784A434FF0E0235A6100229A61012298
:1034E0001A6100BF4FF0E022106910F0010F02D006
:1034F00010F4803FF6D000224FF0E0231A619A6169
:10350000704701460D4A12884A434FF0E0235A6142
:1035100000229A6101221A6100BF4FF0E022106977
:1035200010F0010F02D010F4803FF6D000224FF0CF
:10353000E0231A619A617047400100204201002097
:1035400070B505461DB9FDF726FA044600BF00BF59
:103550000CB1012070BD0020FCE70146002070473F
:103560002DE9F04105460E4617461C464FF000086F
:1035700014B90420BDE8F08135B9224639463046F9
:10358000FDF7D9FA804600BF00BFB8F1000F01D1A6
:103590000020EFE70120EDE72DE9F04105460E465A
:1035A00017461C464FF0000814B90420BDE8F0810E
:1035B00035B9224639463046FDF7F3FA804600BF5A
:1035C00000BFB8F1000F01D10020EFE70120EDE7C7
:1035D0002DE9F04106460F4615462EBB37B1012FA7
:1035E0001AD0022F0FD0032F1BD111E00020114958
:1035F0000860FDF79DF808B9002400E001240120CF
:103600000C4908600FE04FF40070288000240AE0A5
:1036100008202880002406E0FDF782F928600024B5
:1036200001E0042400BF00E001242046BDE8F08151
:10363000002070479001214270B503460C4603E01C
:1036400014F8015B03F8015B1500A2F10102F7D148
:1036500070BD30B5034601E003F8011B1400A2F170
:103660000102F9D130BDF0B503461C460D460020DD
:1036700000BF1600A2F1010207D014F8017B15F873
:1036800001CBA7EB0C063000F3D0F0BD024600E002
:10369000521C107810B110788842F9D11078704718
:1036A0002DE9F04104460D46E66AAE422FD020795E
:1036B00008B360780123324604F13001FFF76CFF54
:1036C00010B10120BDE8F08100202071D4E907107D
:1036D0000844B0420FD9E7780AE0E0690644607810
:1036E0000123324604F13001FFF756FF781EC7B2BE
:1036F000012FF2DC00BF55B1607801232A4604F1A6
:103700003001FFF72DFF08B10120DBE7E562002063
:10371000D8E770B5044600212046FFF7C1FF0546F3
:10372000F5BB2078032850D16079D0B30020E06247
:103730004FF40072002104F13000FFF78AFF552199
:1037400084F82E12AA2184F82F125221302001551C
:1037500084F83110612184F83210412184F833104B
:10376000722184F8141284F81512412184F816127B
:10377000612184F81712206984F818022069010A6F
:1037800084F819122069010C84F81A122069010EBC
:1037900084F81B12E06884F81C02E068010A01E06A
:1037A0001AE012E084F81D12E068010C84F81E1281
:1037B000E068010E84F81F126078012304F13001E3
:1037C0006269FFF7E9FE002060716078002211460F
:1037D000FFF7FEFE00B10125284670BD0246891E96
:1037E0009069801E884201D8002070479378906AC3
:1037F00001FB0300F9E72DE9F04105460C46022CD8
:1038000002D3A869A04202D80120BDE8F08128783F
:10381000012804D002282CD003285AD13DE02746A5
:1038200007EB5707286A00EB57212846FFF738FFB8
:1038300000B14EE0C7F3080105F1300010F8018037
:103840007F1C286A00EB57212846FFF729FF00B1AB
:103850003FE0C7F3080105F13000405C48EA00286A
:1038600014F0010F02D04FEA1810CEE7C8F30B0096
:10387000CBE7286A00EB14212846FFF711FF00B1BF
:1038800027E040F2FF1000EA440105F130000E1875
:103890003078717840EA0120B7E7286A00EBD4114C
:1038A0002846FFF7FDFE00B113E040F2FF1000EAEA
:1038B000840105F130000E18F0780006B17840EA76
:1038C0000140717840EA01203178084320F07040CF
:1038D0009BE700BF4FF0FF3097E72DE9F047054623
:1038E0000E461746022E02D3A869B04202D84FF006
:1038F00002088AE02878012804D0022841D0032851
:103900007DD154E0B14609EB5909286A00EB5921F1
:103910002846FFF7C5FE8046B8F1000F00D071E0E1
:10392000C9F3080105F130000C1816F0010F04D09E
:10393000F9B2207861F31F1000E0F8B2207009F1AD
:10394000010901202871286A00EB59212846FFF758
:10395000A7FE8046B8F1000F00D053E0C9F308017C
:1039600005F130000C1816F0010F02D0C7F3071054
:1039700005E0207800F0F000C7F303210843207031
:1039800040E0286A00EB16212846FFF789FE8046B2
:10399000B8F1000F00D035E040F2FF1000EA460118
:1039A00005F130000C182770380A60702AE0286A88
:1039B00000EBD6112846FFF773FE8046B8F1000FE2
:1039C00000D01FE040F2FF1000EA860105F1300050
:1039D0000C18E0780006A17840EA0140617840EADE
:1039E00001202178084300F0704007432770380A0F
:1039F0006070380CA070380EE07003E0FFE74FF005
:103A0000020800BF00BF012028714046BDE8F087D2
:103A10002DE9F04104460E46022E02D3A069B042C1
:103A200001D8022725E000271FE031462046FFF796
:103A3000E2FE054605B91BE0012D01D1022717E082
:103A4000681C01D1012713E0002231462046FFF710
:103A500044FF074607B10BE02069401C04D02069F1
:103A6000401C2061012060712E46A069B042DCD864
:103A700000BF3846BDE8F0812DE9F047044689468D
:103A8000B9F1000F06D1E76817B1A069B84211D8A3
:103A900001270FE049462046FFF7ADFE0646022EFD
:103AA00002D20120BDE8F087A069B04201D93046BA
:103AB000F8E74F463D4600BF6D1CA069A84204D8F8
:103AC0000225BD4201D90020ECE729462046FFF738
:103AD00092FE064606B909E0701C01D0012E01D104
:103AE0003046DFE7BD42E7D10020DBE700BF6FF0E3
:103AF000704229462046FFF7F0FE8046B8F1000FDD
:103B000008D1B9F1000F05D02A4649462046FFF7F3
:103B1000E4FE8046B8F1000F09D1E5602069401C41
:103B20000DD02069401E20610120607107E0B8F1CE
:103B3000010F02D14FF0FF3000E00120054628467A
:103B4000B0E770B503460D46586A021D680A1E6844
:103B5000B678B0FBF6F400BF02CA09B9002070BD08
:103B60008C4200D202E0641A121DF5E700BF106813
:103B70002044F4E72DE9F04104460E46E680A568AE
:103B8000012D03D020688069A84202D80220BDE838
:103B9000F0812DB920680078032801D12068456A9A
:103BA00065B9E56020680089B04201DC0220EEE7DB
:103BB0002068406A00EB1610206120E020688078C1
:103BC000070112E029462068FFF715FE0546681C2C
:103BD00001D10120DBE7022D03D320688069A842D0
:103BE00001D80220D3E7F01B86B2BE42EADAE560D4
:103BF00029462068FFF7F2FD00EB161020612068CF
:103C0000303006F00F0100EB411060610020BEE78C
:103C10002DE9F0410446884600BFE088401C86B28A
:103C20000EB1206910B90420BDE8F08116F00F0F25
:103C30006ED12069401C2061E06828B920680089A5
:103C4000B04265DC0420EFE720688078401E10EA6F
:103C5000161F5DD1E1682068FFF7CDFD0546012DF7
:103C600001D80220E0E7681C01D10120DCE72068D0
:103C70008069A84246D8B8F1000F01D10420D3E7EB
:103C8000E1682068FFF7F8FE05460DB90720CBE78D
:103C9000012D01D10220C7E7681C01D10120C3E733
:103CA00000212068FFF7FCFC08B10120BCE7216877
:103CB00001F130004FF400720021FFF7CAFC2946E1
:103CC0002068FFF78BFD2168C862002710E0012003
:103CD0002168087100212068FFF7E2FC08B101208B
:103CE000A2E72068C06A401C2168C862781CC7B27D
:103CF00020688078B842EADC2068C06AC01B21686E
:103D0000C86200BFE56029462068FFF767FD2061B3
:103D1000E6802068303006F00F0100EB4110606152
:103D2000002081E710B502468C7ECB7E44EA03205A
:103D30001378032B05D10C7D4B7D44EA032340EA25
:103D4000034010BD81760A0AC2760A0C02750A0E7B
:103D5000427570472DE9F041044600212046FFF7E7
:103D600009FF054615B12846BDE8F08100BF21696D
:103D70002068FFF795FC054605B116E066693778BF
:103D80000FB9042511E0F07A10F0080F06D10B22CC
:103D90003046A169FFF767FC00B906E00021204624
:103DA000FFF736FF0546002DE1D000BF2846DBE7D0
:103DB0002DE9F041044604251BE021692068FFF746
:103DC0006FFC054605B117E067693E780EB904251A
:103DD00012E0E52E06D02E2E04D0F87A10F0080F4F
:103DE00000D109E000212046FFF712FF054605B18A
:103DF00002E020690028E0D100BF0DB10020206161
:103E00002846BDE8F0812DE9F04104460021204616
:103E1000FFF7B0FE0546ADB900BF21692068FFF786
:103E20003FFC054605B10CE060690678E52E00D040
:103E300006B906E001212046FFF7EAFE0546002DFF
:103E4000EBD000BF9DB921692068FFF729FC05462A
:103E50006DB96769202200213846FFF7FAFB0B2273
:103E60003846A169FFF7E8FB012021680871284660
:103E7000BDE8F08170B50446E1882046FFF77AFE80
:103E800005465DB921692068FFF70AFC05462DB992
:103E9000E52061690870012021680871284670BD1D
:103EA0002DE9F35F8A46DAF8007000E07F1C38786D
:103EB0002F28FBD038785C28F8D0009886690B2230
:103EC00020213046FFF7C5FB0025A946AB464FF041
:103ED000080800BF58460BF1010B3C5C202C03DDA9
:103EE0002F2C01D05C2C00D134E02E2C01D0C14508
:103EF0000ED3B8F1080F01D12E2C02D00620BDE858
:103F0000FC9F4FF008094FF00B08A806050EE1E7EB
:103F1000802C03DB45F003050620F0E72146FFA0D7
:103F2000FFF7B4FB08B10620E9E7412C04DB5A2C6B
:103F300002DC45F0020508E0612C06DB7A2C04DC8B
:103F400045F00105A4F12000C4B2484609F1010979
:103F50003454BFE700BF07EB0B00CAF80000202C69
:103F600001DC042000E00020C4B2B9F1000F01D14F
:103F70000620C4E73078E52801D105203070B8F17B
:103F8000080F01D1A806050E05F00300012801D194
:103F900044F0100405F00C00042801D144F008049A
:103FA000F4720020ABE7F0B505460B4603F10902B9
:103FB0002F69F7B36869067B00210AE0445C202C76
:103FC00000D108E0052C00D1E52400BF02F8014B28
:103FD000491C0829F2D300BF077A202F0FD02E27C3
:103FE00002F8017B082107E0445C202C00D105E0A9
:103FF00000BF02F8014B491C0B29F5D300BFC77A5B
:104000001F72C77F4FEA076C877F4CEA074C477FD8
:104010004CEA072790F81CC047EA0C071F6090F88D
:1040200018C0477E4CEA07279F8090F816C0C77DCE
:1040300000E002E04CEA0727DF8000271770F0BDA0
:104040002DE9F3410446019800782F2803D0019808
:1040500000785C2802D10198401C01900020A060EB
:1040600001980078202807D200212046FFF782FD22
:1040700005460020606129E000BF01A92046FFF746
:104080000FFF054605B120E02046FFF763FE054619
:10409000A069C67A45B1042D00D016E000BF16F025
:1040A000040F00D1052510E016F0040F00D00CE03D
:1040B0006769F87A10F0100F01D1052505E039463F
:1040C0002068FFF72FFEA060D7E700BF2846BDE8B5
:1040D000FC8170B504460D46607801232A4604F140
:1040E0003001FFF73DFA08B1032070BD94F82E129D
:1040F00094F82F0241EA0020A0F52A41553901D059
:104100000220F2E794F86900010694F8680041EA99
:10411000004194F8670041EA002094F866100843D3
:1041200020F07F408149884201D10020DDE794F8EA
:104130008500010694F8840041EA004194F8830068
:1041400041EA002094F88210084320F07F4077492C
:10415000884201D10020C8E70120C6E72DE9F74FCA
:1041600088B008980068019001980078303807906E
:10417000079809280AD8019840783A2806D101986A
:10418000801C019008990198086001E000200790C8
:10419000002109980160079818B10B200BB0BDE809
:1041A000F08F6349079851F820400CB90C20F5E7CF
:1041B00009980460207878B16078FFF7CEF98146DD
:1041C00019F0010F08D10A9820B119F0040F01D09D
:1041D0000A20E3E70020E1E70020207007986070E4
:1041E0006078FFF7ADF9814619F0010F01D0032087
:1041F000D4E70A9820B119F0040F01D00A20CDE7C6
:104200004FF0000B59462046FFF763FF054600BFFD
:10421000012D27D14FF0000ABAF1000F03D0AAF107
:10422000010000F0FF0A4FF4DF7000EB0A1104F107
:10423000300001EB000898F8040098B198F80B00E2
:10424000010698F80A0041EA004198F8090041EA9D
:10425000002098F8081040EA010B59462046FFF765
:1042600038FF0546032D01D1012097E70DB10D2040
:1042700094E73B20015D94F83C0041EA0020B0F552
:10428000007F01D00D2089E74620015D94F84700AA
:1042900041EA002777B994F85700010694F85600D0
:1042A00041EA004194F8550041EA002094F8541086
:1042B00040EA0107E7614020065DE670012E03D069
:1042C000022E01D00D2069E777433D20005D0646B0
:1042D000A07016B1701E304201D00D205EE7412063
:1042E000015D94F8420041EA00202081208910F00D
:1042F0000F0F01D00D2051E74320015D94F84400D9
:1043000041EA002006900698E0B994F853000106AF
:1043100094F8520041EA00410CE00000222A2B2CC4
:104320003A3B3C3D3E3F5B5D7C7F00004641540094
:104330004401002094F8510041EA002094F8501004
:10434000084306903E20015D94F83F0041EA0020BA
:104350000290029808B90D2020E70298384421897C
:1043600000EB11100590DDE90501814201D20D201D
:1043700014E7DDE90510401AA178B0FBF1F00490D4
:10438000049808B90D2009E7012540F6F671049854
:10439000884200D302254FF6F6710498884200D374
:1043A00003250498801CA06105985844A0620298D7
:1043B00058442062032D16D1208908B10D20EDE666
:1043C00094F85F00010694F85E0041EA004194F819
:1043D0005D0041EA002094F85C1008436062A06927
:1043E0008000039014E0208908B90D20D6E6206AE9
:1043F00038446062022D02D1A069400007E0A06944
:1044000000F00100A16901EB410100EB51000390B4
:10441000E169039800F2FF10B1EB502F01D20D209B
:10442000BCE64FF0FF3020610020E060032D5CD13E
:10443000607194F8601094F8610041EA00205844DB
:1044400060616078012304F130016269FFF788F848
:10445000F0BB94F82E1294F82F0241EA0020A0F548
:104460002A41553941D194F83300010694F83200BD
:1044700041EA004194F8310041EA002094F83010FC
:104480000843FF49884230D194F81702010694F896
:10449000160241EA004194F8150241EA002094F81E
:1044A00014120843F74988421FD194F81F020106ED
:1044B00094F81E0241EA004194F81D0241EA0020EE
:1044C00094F81C120843E06094F81B02010600E017
:1044D0000BE094F81A0241EA004194F8190241EA0B
:1044E000002094F81812084320612570E6480088DF
:1044F000401C80B2E4490880E0800020E062207126
:1045000000BF4BE670B505462C46206838B12068E0
:10451000007820B12068C088A188884201D0092095
:1045200070BD21684878FFF718F810F0010F01D02E
:104530000320F5E70020F3E70246012A01DB0B2008
:104540007047D24850F822300BB10020187009B1E2
:1045500000200870CD4840F822100020F0E72DE937
:10456000F7438AB0054616461DB909200DB0BDE8CF
:10457000F0830020286006F01F0626F0010203A940
:104580000BA8FFF7EBFD0746F7BBCDF824D003A837
:104590000B99FFF755FD0746089C0FB904B906278C
:1045A00016F01C0F51D04FB1042F03D103A8FFF711
:1045B0002AFC074646F00806089C09E0E07A10F05D
:1045C000110F01D0072703E016F0040F00D00827D1
:1045D000D7BB16F0080F37D0FFF72AF8804684F8CB
:1045E0000E804FEA1820E0734FEA184121744FEA19
:1045F000186060740020E072207700216177A17755
:10460000E1772146039800E053E0FFF78BFB8146FA
:1046100000212046FFF796FB012003990871B9F1AC
:10462000000F11D00398D0F82C8049460398FFF76B
:10463000EFF9074647B9A9F101000399C86041465F
:104640000398FFF72DF807460EE06FB9E07A10F0F7
:10465000100F01D0042707E016F0020F04D0E07A13
:1046600010F0010F00D0072747B916F0080F01D04E
:1046700046F020060398C06AE8612C62CFB9AE719B
:1046800021460398FFF74EFB2861E07F0106A07FDB
:1046900041EA0041607F41EA0020217F0843E86051
:1046A0000020A860A8616862039828600398C08809
:1046B000A88038465AE72DE9FF4F83B004461546D7
:1046C0009A46DDF810B00020CAF800002046FFF737
:1046D00019FF0290029818B1029807B0BDE8F08F58
:1046E000A07910F0800F01D00220F6E7A07910F039
:1046F000010F01D10720F0E7D4E90210401A009021
:104700000098854200D9009DC5E0A068C005C00D95
:1047100070D120688078401EA16800EA512000F026
:10472000FF09B9F1000F25D1A06810B920690190E7
:104730000CE0606A28B12046A168FFF702FA0190F8
:1047400004E061692068FFF756F80190019802289B
:1047500005D2A07940F08000A0710220BDE7019849
:10476000401C05D1A07940F08000A0710120B4E781
:104770000198606161692068FFF730F806462EB93C
:10478000A07940F08000A0710220A6E74E444FEAD5
:104790005528B8F1000F2ED009EB08002168897860
:1047A000884203D920688078A0EB090821684878FE
:1047B00008F0FF0332465946FEF7D2FE28B1A07931
:1047C00040F08000A071012087E7A07910F0400F31
:1047D0000DD0A069801B404509D2A169891B0BEB54
:1047E00041204FF4007204F12801FEF725FF4FEA43
:1047F00048273DE029E0A069B04225D0A07910F01B
:10480000400F12D021684878012304F12801A269E1
:10481000FEF7C2FE28B1A07940F08000A07101200F
:104820005BE7A07920F04000A0712168487801235F
:10483000324604F12801FEF793FE28B1A07940F03A
:104840008000A071012048E7A661A068C0F30800BD
:10485000C0F50077AF4200D92F46A068C0F3080228
:1048600004F1280011183A465846FEF7E5FE00BF4D
:10487000BB44A0683844A060DAF80000384407E080
:10488000525261417272416148010020440100208E
:10489000CAF80000ED1B002D7FF437AF00201CE7A5
:1048A0002DE9FF4F83B0044615469B4604980190BE
:1048B0000020CBF800002046FFF724FE029002986B
:1048C00018B1029807B0BDE8F08FA07910F0800F02
:1048D00001D00220F6E7A07910F0020F01D10720E5
:1048E000F0E7E0682844E168884200D20025D5E07E
:1048F000A068C005C00D7ED120688078401EA168E8
:1049000000EA512000F0FF0ABAF1000F32D1A0688E
:1049100058B9D4F81080B8F1000F13D100212068E5
:10492000FFF7AAF8804620610CE0606A28B12046B3
:10493000A168FFF706F9804604E061692068FFF787
:104940009BF88046B8F1000F00D1AAE0B8F1010F42
:1049500005D1A07940F08000A0710220B2E718F1E3
:10496000010005D1A07940F08000A0710120A9E7E5
:10497000C4F81480A07910F0400F12D02168487854
:10498000012304F12801A269FEF706FE28B1A079EF
:1049900040F08000A071012094E7A07920F0400051
:1049A000A07161692068FEF719FF06462EB9A0794B
:1049B00040F08000A071022084E756444FEA552958
:1049C000B9F1000F30D00AEB0900216889788842DC
:1049D00003D920688078A0EB0A092168487809F09B
:1049E000FF0332460199FEF7D7FD38B1A07940F0B8
:1049F0008000A07100E02EE0012063E7A069801B29
:104A000048450ED2A069801B019A02EB40214FF469
:104A1000007204F12800FEF70FFEA07920F040009C
:104A2000A0714FEA49272DE0A069B04212D0D4E925
:104A3000020188420ED2216848780123324604F1EF
:104A40002801FEF78DFD28B1A07940F08000A0710B
:104A5000012037E7A661A068C0F30800C0F5007721
:104A6000AF4200D92F46A168C1F3080204F1280122
:104A700050183A460199FEF7DFFDA07940F040005A
:104A8000A07100BF019838440190A0683844A0602C
:104A9000DBF800003844CBF80000ED1B002D7FF45C
:104AA00027AF00BFD4E90201884201D9A068E060C5
:104AB000A07940F02000A071002003E72DE9F0412B
:104AC00004462046FFF71EFD0746F7BBA07910F00D
:104AD000200F48D0A07910F0400F0FD021684878FF
:104AE000012304F12801A269FEF756FD10B101204F
:104AF000BDE8F081A07920F04000A071E169206854
:104B0000FEF7CEFD074607BB256AE87A40F0200095
:104B1000E872E0682877E068000A6877E068010CCE
:104B2000A977E068000EE87728462169FFF70AF9BF
:104B3000FEF77EFD0646AE75300AE875310C297623
:104B4000300E68760020A87400E00CE00021E974C3
:104B5000A07920F02000A071012021680871206850
:104B6000FEF7D7FD07463846C2E770B50446204633
:104B7000FFF7A4FF05460DB900202060284670BD50
:104B80002DE9FE4F04460D462046FFF7BBFC029080
:104B9000029810B10298BDE8FE8FA07910F0800F46
:104BA00001D00220F7E7606AF0B3681C43D1D4F863
:104BB000248058F804AB4FF0020926696EB300BF99
:104BC00000964FF0000B09F1020900BF01960BF1AE
:104BD000010B31462068FEF70EFE0646012E05D871
:104BE000A07940F08000A0710220D4E7701C05D1AC
:104BF000A07940F08000A0710120CCE70198401C12
:104C00008642E3D0D14504D848F804BB009848F860
:104C1000040B20688069B042D2D8606AC0F8009066
:104C2000D14505D8002000E053E0C8F800004FE06F
:104C3000112002904CE0E068A84200D2E568A5602F
:104C40008DB3691E2046FEF77CFF606161692068B4
:104C5000FEF7C4FD07462FB9A07940F08000A0718F
:104C6000022098E720688078401E691E00EA5120E3
:104C70000744A068C005C00D2AD0A069B84227D05B
:104C8000A07910F0400F13D021684878012304F177
:104C90002801A269FEF780FC30B1A07940F08000C5
:104CA000A071012077E713E0A07920F04000A07107
:104CB0002168487801233A4604F12801FEF750FCA8
:104CC00028B1A07940F08000A071012063E7A761BE
:104CD000BFE0E068A84204D2A07910F0020F00D132
:104CE000E568D4F808904FF00008C4F8088095B340
:104CF000206880784702B9F1000F11D0681EB0FB20
:104D0000F7F1A9F10100B0FBF7F0814208D3A9F156
:104D10000100791E8843A060A0682D1A666918E01A
:104D20002669AEB900212068FEF7A6FE0646012ED0
:104D300005D1A07940F08000A07102202BE7701C03
:104D400005D1A07940F08000A071012023E7266101
:104D5000666106B12AE042E0A07910F0020F07D0A8
:104D600031462068FEF788FE064636B93D461FE00C
:104D700031462068FEF73FFD0646701C05D1A0793C
:104D800040F08000A071012005E7012E03D92068C2
:104D90008069B04205D8A07940F08000A07102205F
:104DA000F9E66661A0683844A060ED1BBD42D3D827
:104DB00000BFA0682844A060E805C00D0FD03146B0
:104DC0002068FEF70BFD8046B8F1000F05D1A079F1
:104DD00040F08000A0710220DDE608EB5528A068B5
:104DE000C005C00D2AD0A069404527D0A07910F099
:104DF000400F12D021684878012304F12801A269EC
:104E0000FEF7CAFB28B1A07940F08000A071012014
:104E1000C1E6A07920F04000A07121684878012304
:104E2000424604F12801FEF79BFB28B1A07940F02F
:104E30008000A0710120AEE6C4F81880D4E9020118
:104E4000884205D9A068E060A07940F02000A071F8
:104E500000BF02989FE673B584B0044614B90920D8
:104E600006B070BD0022214605A8FFF777F9054678
:104E7000266825BB01A8A06120460599FFF7E0F848
:104E80000546ADB9606958B16069C07A10F0100F7D
:104E900005D030466169FEF745FFA06000E00525BA
:104EA00035B9F088A08000212046FEF763FE054654
:104EB000042D00D1052525B10020206001E000204F
:104EC00020602846CCE7FEB505460E462846FFF78B
:104ED00019FB044604BB2EB900212846FEF74AFE02
:104EE000044619E0C5F818D02846FEF761FF0446CD
:104EF000042C02D10020286100246CB931462846D8
:104F0000FFF751F800212846FEF782FE0446042CE4
:104F100002D10020286100242046FEBD33B58BB0AD
:104F20000D46002204A90BA8FFF718F904467CB926
:104F300001A80A9004A80B99FFF782F804463CB92F
:104F4000099820B1294604A8FFF72DF800E00624AF
:104F500020460DB030BD2DE9F74F82B08B460022C0
:104F600002A80499FFF7FAF80190049804680198E0
:104F7000F0BBA069801E2169814203D82069CBF86B
:104F8000000067E094F800A00026BAF1010F1CD1E0
:104F9000022700BF39462046FEF72DFC804618F157
:104FA000010002D1012001900EE0B8F1010F02D101
:104FB0000220019008E0B8F1000F00D1761C781CA7
:104FC0000746A1698842E5D33CE0A769206A0090C2
:104FD0004FF00009002500BFB9F1000F10D1009873
:104FE000421C014620460092FEF75AFB019000E069
:104FF00030E0019800B124E004F130054FF400796D
:10500000BAF1020F09D12878697850EA012000D15D
:10501000761CAD1CA9F1020910E0E8780006A97819
:1050200040EA0140697840EA01202978084330F0DD
:10503000704000D1761C2D1DA9F10409781E0700CF
:10504000CAD100BF2661BAF1030F01D101206071FE
:10505000CBF80060019805B0BDE8F08F70B504464C
:105060000CB9092070BD2046FFF74CFA054655B92A
:10507000A07910F0800F01D0022504E0A07910F093
:10508000020F00D10725B5BBD4E9021088422DD903
:10509000A068E060A07940F02000A071A06838B955
:1050A00021692068FEF7B4FC0546002020611DE060
:1050B00061692068FEF79FFB06460025701C00D141
:1050C0000125012E00D1022585B920688069B042F2
:1050D0000CD96FF0704261692068FEF7FEFB05464F
:1050E00025B931462068FEF793FC05461DB1A0792D
:1050F00040F08000A0712846B4E771B591B001225C
:105100000AA911A8FFF72AF80446F4BBCDF840D04D
:105110000AA81199FEF794FF044600BFACBB0F9E8E
:105120000EB9062404E0F07A10F0010F00D0072435
:1051300031460A98FEF7F6FD0546E4B9F07A10F01C
:10514000100F18D0022D01D2022414E01C220AA94B
:1051500003A8FEF771FA0595022103A8FEF70AFDE0
:10516000044644B903A8FEF723FE044604B9072405
:10517000042C00D1002444B90AA8FEF77BFE0446A3
:105180001CB935B129460A9800E007E0FEF740FC5B
:1051900004461CB90A98FEF7BCFA0446204612B031
:1051A00070BD2DE9F1478BB0FEF742FA06460122A9
:1051B00004A90BA8FEF7D2FF0546F5BB01A80A908B
:1051C00004A80B99FEF73CFF054605B9082500BF6A
:1051D000042D32D100210498FEF74EFC074600252D
:1051E00007B90725012F00D10225781C00D1012520
:1051F00025B900210498FEF753FA0546F5BB394658
:105200000498FEF7EBFA8146049800F130044FF45D
:10521000007200212046FEF71CFA0B2220212046B6
:10522000FEF717FA2E2020701020E072A675300AC3
:10523000E075310C2176300E00E061E06076394691
:105240002046FEF77FFD2022214604F12000FEF7D4
:10525000F3F92E2084F82100DDF818A004980078D6
:10526000032805D10498406A504501D14FF0000A47
:10527000514604F12000FEF765FD00E020E00498AF
:1052800090F8028018E00498C0F82C9009F1010908
:1052900001200499087100210498FEF701FA0546DF
:1052A00005B10CE04FF4007200212046FEF7D1F961
:1052B000A8F1010000F0FF08B8F1000FE3D100BF32
:1052C0001DB904A8FEF79FFD054625B1394604988F
:1052D000FEF79EFB14E0099C1020E072A675300AD0
:1052E000E075310C2176300E607639462046FEF7A7
:1052F00029FD0120049908710498FEF70AFA054671
:1053000028460CB0BDE8F087F7B58AB00F461446C2
:10531000012203A90AA8FEF721FF0646EEB9CDF83F
:1053200024D003A80A99FEF78BFE064600BFA6B953
:10533000089D0DB9062610E004F0270407EA0400D2
:10534000E97AE243D2B211400843E872012003999E
:1053500008710398FEF7DDF9064630460DB0F0BD42
:1053600073B58AB00D46012203A90AA8FEF7F6FE1E
:105370000646EEB9CDF824D003A80A99FEF760FEE0
:10538000064600BFA6B9089C0CB9062610E0E888BE
:10539000A075E8880012E075A8882076A888001219
:1053A00060760120039908710398FEF7B2F906466A
:1053B00030460CB070BD2DE9F34198B00F46012284
:1053C00011A918A8FEF7CAFE0446F4BB11980A906A
:1053D00001A8179011A81899FEF732FE044600BFE5
:1053E0009CBB169808B904246AE0169800F10B01DA
:1053F000152204A8FEF720F91C2211A90AA8FEF71D
:105400001BF939460AA8FEF71BFE044604B9082416
:10541000042C55D10AA8FEF7F6FC0446ACB90F9D42
:1054200013220DF1120105F10D00FEF705F99DF8AB
:10543000100040F02000E8720120119908710C99C9
:105440001398884232D0E87A00E039E010F0100F6B
:105450002CD029461198FEF765FC804641461198EC
:10546000FEF7BCF906460EB902241FE0314611983A
:10547000FEF716F90446119800F15005B4B96878A2
:105480002E2813D111980078032806D111990C9871
:10549000496A884201D1002000E00C980646314656
:1054A0002846FEF74FFC01201199087144B911A854
:1054B000FEF7E0FC04461CB91198FEF72AF90446F1
:1054C00020461AB0BDE8F0812DE9F74F8EB0924624
:1054D0000E98012803DB0B2011B0BDE8F08F0F9868
:1054E000012801DD1320F7E7AAF1010010EA0A0FF5
:1054F00001D01320F0E7FF490E9851F820B0BBF11E
:10550000000F01D10C20E7E700208BF800000E9877
:105510000B9000200A900B98FEF712F8009000986C
:1055200010F0010F01D00320D6E7009810F0040F0F
:1055300001D00A20D0E700BF03AA01210B98FEF793
:1055400047F810B90398802801D20120C4E70F98CA
:1055500008B1002000E03F2081460398A0EB09003D
:105560000390BAF1000F13D14FF4FA610398B0FB26
:10557000F1F009904FF0000801E008F10108DE4861
:1055800030F8181009988142F7D8DC4830F818A094
:105590004FEA5A2ABAF1000F01D14FF0010ABAF1CD
:1055A000800F01D94FF0800A0398B0FBFAF701256C
:1055B00040F6F670874200D302254FF6F670874218
:1055C00000D30325032D0AD1082000EB870000F249
:1055D000FF10460A202002900020019011E0012DCA
:1055E00005D107EB4700401C4008C01C01E07800D3
:1055F000001D064606F2FF10460A012002902020F8
:10560000019002984844069006983044059001990C
:1056100005980844049004985044A0EB09000399AD
:10562000884201D90E2057E708AA03210B98FDF7FD
:10563000CFFF28B9089818B10898B0F5004F01D9E4
:1056400001200890089904980844401E491E884388
:10565000089008990498081A0890032D08D1089911
:10566000029808440290089906980844069001E0C0
:1056700008980644DDE90201081A811B0198081AFE
:10568000B0FBFAF7022D03D140F6F670874205D33E
:10569000032D05D14FF6F670874201D20E201BE78D
:1056A000012D02D0022D0DD102E001200C900CE062
:1056B0000398B0F5803F01D2042000E00620C0B27C
:1056C0000C9002E00C200C9000BF00BF00BF0F98B0
:1056D00010B1F0200D9044E04FF4007200210BF166
:1056E0003000FDF7B6FF0BF5F77401206070A07075
:1056F0000020E0700C982071FE20607103984844EF
:105700003F21B0FBF1F0FF21B0FBF1F008903F2109
:10571000089841EA9000A0710898E0713F2020723B
:1057200000216172A172E172039820730398000A4C
:1057300060730398010CA1730398000EE073552168
:105740008BF82E12AA218BF82F12012300220BF1C5
:1057500030010B98FDF720FF08B10120BCE6F820CE
:105760000D900BF130044FF4007200212046FDF73C
:1057700070FF0B2262A12046FDF75EFF4FF4007818
:1057800084F80B804FEA2820207384F80DA002983B
:10579000A0730298000AE07301202074032D01D148
:1057A000002001E04FF40070804684F811804FEA39
:1057B0001820A0740398B0F5803F05D20398E074D8
:1057C0000398000A207510E0039884F820000398DD
:1057D000C0F30720212108550398C0F30741222078
:1057E00001550398000E232108550D9860753F2040
:1057F000207600216176FF20A076E17684F81C9067
:105800004FEA192060774FEA1941A1774FEA1960F2
:10581000E077FDF70DFF0890032D3ED1089884F83E
:1058200043000898C0F30720442108550898C0F3A6
:105830000741452001550898000E4621085584F877
:105840002460C6F3072025210855C6F3074126200A
:105850000155300E27210855022084F82C00002124
:105860002D2001552E2001552F200155012084F8AF
:10587000300031200155062084F8320033200155D4
:10588000802084F84000292084F8420013221FA1C0
:1058900004F14700FDF7D0FE1FE0089884F82700C8
:1058A0000898C0F30720282108550898C0F307413D
:1058B000292001550898000E2A210855A675300A9E
:1058C000E075802084F82400292084F82600132223
:1058D00013A104F12B00FDF7AFFE552084F8FE0163
:1058E000AA2140F2FF10015501234A4621460B9898
:1058F00020E0000044010020F88700080E8800081E
:10590000EBFE904D53444F53352E30004E4F204EFA
:10591000414D452020202046415433322020200094
:105920004E4F204E414D45202020204641542020FE
:1059300020202000FDF730FE08B10120CCE5032D2A
:1059400006D1012309F1060221460B98FDF724FE3A
:10595000069807904FF0000861E04FF400720021B4
:105960002046FDF776FE0D980890032D14D0012DEA
:1059700001D1FF4801E06FF0FF000899084308904B
:10598000089820700898000A60700898000CA070B1
:105990000898000EE07019E0089860F0FF00089089
:1059A000089820700898000A60700898000CA07091
:1059B0000898000EE070FF202071FF216171A17135
:1059C000E17120726172A1720F21E1720798411C8E
:1059D00002460123079121460B98FDF7DDFD08B132
:1059E000012079E54FF4007200212046FDF731FED9
:1059F000012008900EE00798411C02460123079100
:105A000021460B98FDF7C8FD08B1012064E5089810
:105A1000401C08900898B042EDD308F10108B8F195
:105A2000000F9AD0032D01D1504600E00198804626
:105A300000BF0798411C02460123079121460B989D
:105A4000FDF7AAFD08B1012046E5A8F101005FEAD3
:105A50000008EED1032D46D15220207060706120E5
:105A6000A0704120E070722084F8E401722140F2BD
:105A7000E51001554121401C01556121401C015593
:105A8000781E84F8E801C0F3072040F2E9110855B8
:105A9000781EC0F307414FF4F5700155781E000ED3
:105AA00040F2EB110855022084F8EC01002140F28D
:105AB000ED100155401C0155401C0155552084F83E
:105AC000FE01AA2140F2FF100155012309F1010254
:105AD00021460B98FDF760FD012309F107022146DD
